:020000040800F2
:10000000A8060020350E0008E9020008EB020008EF
:10001000EF020008F3020008F702000800000000E9
:10002000000000000000000000000000FB020008CB
:10003000FD02000800000000FF02000801030008A4
:100040004F0E00084F0E00084F0E00084F0E00081C
:100050004F0E00084F0E00084F0E00084F0E00080C
:100060004F0E00084F0E00084F0E00084F0E0008FC
:100070004F0E00084F0E00084F0E00084F0E0008EC
:100080004F0E00084F0E00084F0E00084F0E0008DC
:100090004F0E00084F0E00084F0E00084F0E0008CC
:1000A0004F0E00084F0E00084F0E00084F0E0008BC
:1000B0004F0E00084F0E00084F0E00084F0E0008AC
:1000C0004F0E00084F0E00084F0E00084F0E00089C
:1000D0004F0E0008170E00084F0E00084F0E0008C4
:1000E0004F0E00084F0E00084F0E00084F0E00087C
:1000F0004F0E00084F0E00084F0E00084F0E00086C
:100100004F0E00084F0E00084F0E00084F0E00085B
:100110004F0E00084F0E00084F0E00084F0E00084B
:100120004F0E00084F0E00084F0E00084F0E00083B
:1001300000F002F800F03AF80AA090E8000C8244BF
:100140008344AAF10107DA4501D100F02FF8AFF29C
:10015000090EBAE80F0013F0010F18BFFB1A43F0A5
:1001600001031847741C0000941C0000103A24BFBF
:1001700078C878C1FAD8520724BF30C830C144BF0C
:1001800004680C607047000000230024002500264E
:10019000103A28BF78C1FBD8520728BF30C148BFEA
:1001A0000B6070471FB51FBD10B510BD01F0DFFD1E
:1001B0001146FFF7F7FF00F009F801F0FDFD03B469
:1001C000FFF7F2FF03BC00F0A5FD000098B000F0BF
:1001D000B6F900F035FD4FF4A06001F055FD4FF485
:1001E000165000F0A6FD00F009FB00BF00F09EFBDA
:1001F0000028FBD16CE000F03EFC00F06EFA3549BF
:100200000880C82000F059FD4DE09DF843001228F9
:100210000AD19DF8200038B99DF8000020B90621C8
:1002200010A800F0CAFC3EE000240EE000BF2A48FF
:10023000008800F040000028F9D010A9601C085C7C
:100240002549091D0880601CC4B29DF84000A042E9
:10025000ECDC00240EE000BF1F48008800F04000E6
:100260000028F9D008A9601C085C1B49091D0880FA
:10027000601CC4B29DF82000A042ECDC00240EE01B
:1002800000BF1548008800F040000028F9D0601C2D
:100290001DF800001049091D0880601CC4B29DF8BB
:1002A0000000A042ECDC6A4608A910A800F0B8FBE8
:1002B0000028AAD000F005FC08480078012801D1E8
:1002C00000F03CFC06480068C0430649C1F88401C0
:1002D00091E70000000000200044004002000020E0
:1002E0008481214200802142704700BFFEE700BFA9
:1002F000FEE700BFFEE700BFFEE7704770477047AC
:10030000704700000CB50020019000906C48006818
:1003100040F480306A49086000BF6948006800F412
:10032000003000900198401C0190009818B9019885
:10033000B0F5A06FF1D16248006800F4003010B150
:100340000120009001E0002000900098012843D196
:100350005C48006840F010005A4908600846006890
:1003600020F0030008600846006840F002000860C2
:10037000534840685249486008464068486008460B
:10038000406840F4806048600846406820F47C1073
:1003900048600846406840F4E81048600846006835
:1003A00040F08070086000BF4548006800F00070B1
:1003B0000028F9D04248406820F0030040494860D6
:1003C0000846406840F00200486000BF3C48406872
:1003D00000F00C000828F9D10CBD10B5FFF792FF12
:1003E00010BD10B53648006840F00100344908607F
:1003F000084640683449084031494860084600686A
:10040000324908402E4908600846006820F48020E0
:1004100008600846406820F4FE0048604FF41F0062
:100420008860FFF7DAFF4FF000602949086010BDCF
:1004300010B5002100200022214B5B6803F00C0165
:1004400021B1042906D0082928D107E0214B224CEC
:10045000236027E01F4B204C236023E0184B5B6890
:1004600003F47010164B5B6803F48032022303EB35
:10047000904022B9194B4343174C23600DE0104BB9
:100480005B6803F4003323B1144B4343124C2360E5
:1004900003E0104B4343104C236003E00D4B0E4C24
:1004A000236000BF00BF064B5B68C3F303130C4C13
:1004B000E15C094B1B68CB40074C236010BD00007A
:1004C00000100240002002400000FFF8FFFFF6FE8F
:1004D00008ED00E000127A000400002000093D0051
:1004E0000800002070B50446002520E004F08000DC
:1004F000802804D14101834800F04FFF04E04FF40D
:100500008051804800F04BFF4FF480617D4800F03F
:1005100044FF4FF480617B4800F041FF4FF480615D
:10052000784800F03AFF6006040E681CC5B2082D3A
:10053000DCDB4FF48051734800F02FFF70BD08B52D
:100540000121042001F038F90121082001F034F9DB
:1005500001216D4800F045FF1020ADF800008DF836
:10056000030002208DF802006946684800F068FE2A
:100570000220ADF8000010208DF8030002208DF855
:10058000020069465F4800F05BFE4FF48060ADF802
:10059000000010208DF8030002208DF8020069464B
:1005A000584800F04DFE4FF48050ADF80000102088
:1005B0008DF8030002208DF802006946514800F0D2
:1005C0003FFE4FF40050ADF8000004208DF803000A
:1005D00069464C4800F034FE4FF48040ADF800000E
:1005E00048208DF803006946464800F029FE102097
:1005F000FFF778FF6220FFF775FF08BD2DE9F04196
:10060000002700BF4FF480413E4800F0ACFE0028B8
:10061000F8D100241EE04FF480613A4800F0BDFE9E
:100620004FF48061374800F0BAFE4FF480613548DE
:1006300000F0B3FE4FF40051324800F094FE012860
:1006400002D145F0010501E025F001056806050E1F
:10065000601CC4B2082CDEDB00241EE04FF4806175
:10066000284800F09AFE4FF48061264800F097FE7B
:100670004FF48061234800F090FE4FF40051214870
:1006800000F071FE012802D146F0010601E026F0DB
:1006900001067006060E601CC4B2082CDEDB2F4378
:1006A0004FF6FF7000EA072737433846BDE8F08170
:1006B00010B5012016490860232000F0FEFA00BFA3
:1006C0004FF480410F4800F04EFE0028F8D138204A
:1006D000FFF708FFFFF792FF10BD10B500200C498F
:1006E0000860232000F0E9FA00BF4FF4804105487C
:1006F00000F039FE0028F8D13820FFF7F3FEFFF7AD
:100700007DFF10BD000C01400002300000080140D8
:100710009001214270B50546002405E0601CC4B27A
:10072000C82C01DD002070BD0221314800F0F1FC31
:100730000028F3D029462E4800F098FC002405E05C
:10074000601CC4B2C82C01DD0020ECE70121284860
:1007500000F0DFFC0028F3D0254800F089FCC0B28F
:10076000E1E708B5012141F2040001F025F8E0209D
:10077000ADF8000018208DF8030003208DF802006A
:1007800069461C4800F05CFDE0211A4800F005FEB7
:100790000020194908804FF482704880002088802A
:1007A0000220C880012008814002488138208881C9
:1007B0000020C881072008820D4800F081FB01213C
:1007C0000B4800F022FCFF20FFF7A4FF08BD0849FA
:1007D00009884FF6C7721140054A118011460988F1
:1007E000014311801146098841F040011180704792
:1007F00000300140000801403000002000B587B003
:1008000001210C2000F0D8FF4FF48050ADF8180003
:1008100010208DF81B0003208DF81A0006A9BE4891
:1008200000F00EFD4FF48051BC4800F0B6FDC02032
:10083000ADF8180006A9B94800F002FD2020ADF877
:10084000180028208DF81B0006A9B44800F0F8FC19
:10085000E021B24800F0A3FDFFF783FF0021B0487C
:1008600000F0D3FB0020ADF804004FF48270ADF827
:1008700006000020ADF80800ADF80A00ADF80C0045
:100880004FF40070ADF80E003820ADF810000020D5
:10089000ADF812000720ADF8140001A9A04800F03F
:1008A0000FFB00209F49086001209F49C1F8980173
:1008B00007B000BD2DE9F04107460D461646002061
:1008C0009849091F08603846FFF724FF8046002436
:1008D00005E0FF20FFF71EFF2855601CC4B2B4429C
:1008E000F7DB01208F49091F08604046BDE8F08111
:1008F0002DE9F04107460C46154600208949091F9D
:1009000008603846FFF706FF8046002605E014F829
:10091000010BFFF7FFFE701CC6B2AE42F7DB0120F1
:100920008049091F08604046BDE8F0811CB57FA1E1
:1009300003C9CDE900011020FFF749FF05226946F0
:100940003020FFF7D5FF052269461020FFF7B2FFE0
:10095000002406E01DF80400A52800D003E0601C78
:10096000C4B2052CF6DB00BF052C01D001201CBD54
:100970000020FCE770B505460C4600206949091FB8
:1009800008602846FFF7C6FE06462046FFF7C2FE6F
:1009900001206549C1F89801304670BD70B5044624
:1009A00000206049091F08602046FFF7B3FEFF20C2
:1009B000FFF7B0FE054601205B49C1F898012846C3
:1009C00070BD70B505461020FFF701FF00205549A6
:1009D000086020222946A020FFF78AFF0120524903
:1009E000C1F89C0100BF4F48883800680028FAD140
:1009F0000720FFF7D3FF044621462720FFF7BAFF61
:100A000004F0100028B1FF21E120FFF7B3FF102010
:100A100070BD04F0200008B12020F9E7FF20F7E7BF
:100A20002DE9F04104460F4615461020FFF7CFFE92
:100A30000720FFF7B3FF064631462720FFF79AFF4E
:100A400006F04000A8B1202221466120FFF732FFC6
:100A5000202239466120FFF72DFF20222946612000
:100A6000FFF728FFFF21E220FFF784FF0020BDE809
:100A7000F0810120FBE710B500202A49086005221B
:100A80002C492A20FFF734FF01212120FFF772FFB4
:100A900001212220FFF76EFF00212520FFF76AFFCA
:100AA00020213120FFF766FF0F212620FFF762FF8C
:100AB0000F212020FFF75EFF01201B49C1F89C0198
:100AC00010BD10B500201749086005221A493020D2
:100AD000FFF70EFF052217492A20FFF709FF012122
:100AE0002120FFF747FF01212220FFF743FF1A21B2
:100AF0002420FFF73FFF00212520FFF73BFF0F21B8
:100B00002620FFF737FF0E212020FFF733FF0120BB
:100B10000549C1F89C0110BD00080140000C0140CE
:100B2000003001409C81214200802142A5A5A5A55D
:100B3000A5000000D11D0008CC1D00080EB50A203C
:100B40008DF8000081208DF801000A208DF8020048
:100B500021208DF803000A208DF804003648008813
:100B600000128DF80500344800788DF8060000204A
:100B70008DF807008DF808009DF801009DF802101F
:100B800008449DF8031008449DF8041008449DF89B
:100B9000051008449DF8061008449DF80710084405
:100BA0009DF808100844C0B28DF8090082208DF825
:100BB0000A006846FFF705FF0EBD7CB502460B46EE
:100BC0000024002105E055186D780DF801504D1CEA
:100BD000E9B29942F7DB002005E01DF800502544FA
:100BE000ECB2451CE8B20428F7DB9DF80050812DDB
:100BF00020D19DF80150062D1CD19DF80250122DD8
:100C000018D19DF80450A54214D19DF80550822DAD
:100C100010D19DF803500A2D03D10125074E3570E0
:100C200008E09DF80350FA2D03D10025034E3570DE
:100C300000E07CBD00BFFCE70000002002000020B7
:100C400010B56FF0040001F06EF82E4800682E49D0
:100C5000B0FBF1F02D4908700846007800EB400128
:100C6000C1EBC0104FF6FF7101EAC00028490880AF
:100C700010BD0146254A12784A434FF0E0235A61DD
:100C800000229A611A46126942F001021A6100BFFD
:100C90004FF0E022106900F001021AB100F4803236
:100CA000002AF5D04FF0E022126922F001024FF045
:100CB000E0231A6100229A6170470146144A1288A3
:100CC0004A434FF0E0235A6100229A611A461269A2
:100CD00042F001021A6100BF4FF0E022106900F0FB
:100CE00001021AB100F48032002AF5D04FF0E02260
:100CF000126922F001024FF0E0231A6100229A618A
:100D0000704700000400002000127A001800002044
:100D10001A000020014600BF704700BF414A1288F8
:100D200002F04002002AF9D0C2B23E4B1B1D1A80CD
:100D3000704710B586B00446012144F2040000F06B
:100D40003BFD0121480400F044FD4FF40070ADF874
:100D5000140003208DF8160018208DF8170005A93F
:100D6000314800F06DFA4FF48060ADF8140048206F
:100D70008DF8170005A92C4800F062FA0420ADF8A0
:100D8000140003208DF8160018208DF8170005A90F
:100D9000254800F055FA2220ADF8140010208DF8F7
:100DA000170003208DF8160005A9204800F048FA26
:100DB00025208DF8000003208DF801008DF8020039
:100DC00001208DF80300684600F063FF01940020C5
:100DD000ADF80800ADF80A00ADF80C00ADF8100051
:100DE0000C20ADF80E0001A90E4800F08CFD01A901
:100DF0000F4800F088FD012240F22551094800F01B
:100E00001AFE0121074800F00AFE0121084800F0FF
:100E100006FE06B010BD10B540F22551014800F0A5
:100E2000EFFE10BD0038014000080140000C0140F9
:100E3000004400400948804709480047FEE7FEE7B4
:100E4000FEE7FEE7FEE7FEE7FEE7FEE7FEE7FEE77A
:100E500004480549054A064B70470000E3030008B3
:100E600031010008A8000020A8060020A8020020E8
:100E7000A802002010B50446BE48844208D10121D2
:100E8000801400F0B3FC0021A01400F0AFFC16E0C9
:100E9000B948844208D10121001400F0B4FC0021BB
:100EA000201400F0B0FC0AE0B448844207D10121CC
:100EB000C01300F0A8FC0021E01300F0A4FC10BD5A
:100EC00010B50022028802F441520B884C8823435B
:100ED0008C882343CC8823430C8923434C892343A8
:100EE0008C892343CC8923431A430280838B4FF29E
:100EF000FF74234083830B8A038210BD2DE9F04FDA
:100F000085B005460C464FF0000902274FF0000857
:100F10004FF0010B0026B246A88B4FF2400108406B
:100F2000A88302202884B5F81C90A068022801D16B
:100F300000BF38E0A08810B94FF0010B01E04FF07E
:100F4000020B8D48854200D100E000BF684600F0EA
:100F5000C6FBDDF800A0E088B0F5007F0AD14FEABB
:100F60001A2000EB80004000A168B0FBF1F0401DAA
:100F700086B20BE04FEA4B10BAFBF0F000EB8000BA
:100F80004000A168B0FBF1F0401D86B20A20B6FB1C
:100F9000F0F606F00108A6EB0800C0F34F074FF685
:100FA000FF7000EA0828022F01DBFF2F02DD022775
:100FB0004FF00008E08840EA080038432884A08801
:100FC000A1890843618808432188084340F40060F0
:100FD00040EA0909A5F81C9005B0BDE8F08F002192
:100FE000018041808180C180018141818181C181F5
:100FF0000721018270470021018041808180C180EA
:101000000221816000218181704721B1028842F074
:101010004002028004E002884FF6BF731A4002804B
:10102000704721B1828B42F48062828304E0828B1C
:101030004FF6FF331A408283704730B500240023F7
:101040000C110125A540ABB21AB185881D438580DE
:1010500002E085889D43858030BD1AB183880B43AB
:10106000838002E083888B4383807047818170474F
:101070000146888970474FF6FF62914204D002888A
:1010800042F48072028004E002884FF6FF631A4047
:101090000280704721B1828842F00402828004E01D
:1010A00082884FF6FB731A408280704702884FF2A5
:1010B000FF731A40028002880A4302807047018849
:1010C00041F480510180704721B1028842F40052FE
:1010D000028004E002884DF6FF731A4002807047D8
:1010E00002460020012901D0108B00E0908A704751
:1010F0000146088A7047B1F5804F04D1028842F456
:101100008042028004E002884BF6FF731A4002809E
:1011100070470246002013890B400BB1012000E00C
:1011200000207047CA4302817047F0B50246002094
:1011300000240023002501F00F070126BE40B4B2B1
:101140000B1101269E40B3B2968806EA0305168964
:10115000264016B10DB1012000E00020F0BD10B511
:10116000002201F00F040123A3409AB2D34303816C
:1011700010BD00000030014000380040003C00403D
:1011800010B50446CC48844208D10121042000F067
:101190002DFB0021042000F029FB46E0C7488442D3
:1011A00008D10121082000F021FB0021082000F0D7
:1011B0001DFB3AE0C248844208D10121102000F012
:1011C00015FB0021102000F011FB2EE0BD488442E9
:1011D00008D10121202000F009FB0021202000F08F
:1011E00005FB22E0B848844208D10121402000F0EC
:1011F000FDFA0021402000F0F9FA16E0B3488442DD
:1012000008D10121802000F0F1FA0021802000F0B7
:10121000EDFA0AE0AE48844207D10121801500F0C2
:10122000E5FA0021A01500F0E1FA10BD10B501218A
:10123000084600F0DBFA0021012000F0D7FA10BDCB
:101240002DE9F0410246002500260020002300245D
:10125000002791F803C00CF00F0591F803C00CF0C3
:10126000100CBCF1000F03D091F802C04CEA050548
:1012700091F800C0BCF1000F31D0146800202BE0C1
:101280004FF0010C0CFA00F3B1F800C00CEA0306B1
:101290009E4220D183004FF00F0C0CFA03F7BC43A1
:1012A00005FA03FC4CEA040491F803C0BCF1280FD2
:1012B00006D14FF0010C0CFA00FCC2F814C00AE091
:1012C00091F803C0BCF1480F05D14FF0010C0CFAA6
:1012D00000FCC2F810C0401C0828D1D31460B1F83B
:1012E00000C0BCF1FF0F34DD546800202EE000F197
:1012F000080C4FF0010808FA0CF3B1F800C00CEA32
:1013000003069E4221D183004FF00F0C0CFA03F725
:10131000BC4305FA03FC4CEA040491F803C0BCF199
:10132000280F05D100F1080C08FA0CF8C2F8148057
:1013300091F803C0BCF1480F07D100F1080C4FF041
:10134000010808FA0CF8C2F81080401C0828CED317
:101350005460BDE8F0814FF6FF7101800221817079
:101360000421C17070470246002093680B400BB106
:10137000012000E0002070470146886880B2704775
:1013800002460020D3680B400BB1012000E0002092
:1013900070470146C86880B270470161704741617B
:1013A00070470AB1016100E041617047C160704758
:1013B0004FF480320A43826181618261826982696D
:1013C000704702460020434B18684FF68073184060
:1013D00040EA021008433F4B186070473E49C8611D
:1013E0007047F0B50A46002300240021002500F0D4
:1013F0000046B6F1004F02D1364EF16901E0354E9C
:101400007168C0F3034583B200F44016B6F5401F7F
:1014100008D121F070612F4E766826F070662D4F4E
:101420007E6012E000F48016B6F5801F06D1032618
:1014300006FA05F4A14341F0706106E0460D36015D
:1014400003FA06F6B14341F0706122B1460D360150
:1014500003FA06F6314300F00046B6F1004F02D120
:101460001C4EF16101E01B4E7160F0BD30B50022F1
:101470008B071C0F0F2303FA04F2164B08338C1052
:1014800053F824309343134C08348D1044F825301E
:1014900023468C1053F824308C07240F00FA04F4F0
:1014A00023430C4C08348D1044F8253030BD0A49D4
:1014B000DC3108607047000000080140000C01406A
:1014C000001001400014014000180140001C0140C0
:1014D000002001400000014000002042DF48006879
:1014E00040F00100DD49086008464068DC490840DA
:1014F000DA49486008460068DA490840D749086078
:101500000846006820F4802008600846406820F4FF
:10151000FE0048604FF41F0088607047CF4909689B
:1015200021F48031CD4A11601146096821F48021EF
:101530001160B0F5803F03D0B0F5802F0ED106E0EA
:10154000C649096841F48031C44A116007E0C349C3
:10155000096841F4A021C14A116000E000BF00BF4A
:10156000704710B501460022002300204A11012ACD
:1015700002D1BA4C236806E0022A02D1B74C236A92
:1015800001E0B64C636A01F01F02012494401C4044
:101590000CB1012000E0002010BD38B50020009003
:1015A0000024002500BF3120FFF7DBFF054600982F
:1015B000401C00900098B0F5A06F01D0002DF2D033
:1015C0003120FFF7CEFF08B1012400E000242046BF
:1015D00038BD01460020A14A106820F0F80040EA1A
:1015E000C10010607047A0490860704702460020A3
:1015F0009A4B586820F47C1042EA01031843974B39
:101600005860704798490866704701460020934A21
:10161000506820F003000843506070478F484068CE
:1016200000F00C007047014600208C4A506820F002
:10163000F00008435060704701460020874A506818
:1016400020F4E06008435060704701460020834A60
:10165000506820F4605040EAC1005060704729B1E2
:101660007E4A527A02437D4B5A7204E07B4A527A98
:1016700082437A4B5A7270477B49D8310860704771
:1016800001460020754A506820F4404008435060ED
:1016900070470021714A20321170704A82F8201080
:1016A000012802D004280AD104E001216B4A20322B
:1016B000117005E00521694A2032117000E000BF79
:1016C00000BF70476949086070476449096A01436F
:1016D000624A11627047654944390860704730B505
:1016E00000210022002400235C4D6D6805F00C01F0
:1016F00021B1042905D0082923D105E05C4D0560FE
:1017000022E05B4D05601FE0544D6D6805F47012DA
:10171000524D6D6805F48034022505EB92421CB9E8
:10172000544D554305600BE04C4D6D6805F4003594
:101730001DB1504D5543056002E04D4D55430560C8
:1017400002E04B4D056000BF00BF444D6D6805F0E1
:10175000F0010909484D6B5C0568DD4045603F4D6F
:101760006D6805F4E061090A434D6B5C4568DD4036
:1017700085603A4D6D6805F46051C90A3E4D6B5C59
:101780004568DD40C560354D6D6805F44041890B05
:101790003A4D6B5CC568B5FBF3F5056130BD29B109
:1017A0002E4A526902432D4B5A6104E02B4A52697A
:1017B00082432A4B5A61704729B1284A92690243F1
:1017C000264B9A6104E0254A92698243234B9A6131
:1017D000704729B1214AD2690243204BDA6104E003
:1017E0001E4AD26982431D4BDA61704729B11B4AF8
:1017F000D2680243194BDA6004E0184AD268824387
:10180000164BDA60704729B1144A12690243134B30
:101810001A6104E0114A12698243104B1A61704741
:1018200012494039086070470F49C86470470B4936
:10183000C87170470948406A40F0807007494862A3
:10184000704701460020054A92680A400AB101200B
:1018500000E0002070470149887270470010024084
:101860000000FFF8FFFFF6FE000042428004424203
:1018700000127A0000093D001C0000202C0000200E
:1018800010B50446FB48844209D101218803FFF7C3
:10189000ADFF00214FF48040FFF7A8FF32E0F6488B
:1018A000844209D101214804FFF7ADFF00214FF424
:1018B0000030FFF7A8FF25E0F048844209D101215C
:1018C0008804FFF7A0FF00214FF48020FFF79BFF63
:1018D00018E0EB48844209D10121C804FFF793FFC7
:1018E00000214FF40020FFF78EFF0BE0E548844213
:1018F00008D101210805FFF786FF00214FF4801071
:10190000FFF781FF10BD2DE9F04786B005460E4672
:101910000024A24600BFA1460027B08900B100BF45
:101920002F462C8A4CF6FF700440F08804432C822A
:10193000AC894EF6F3100440B088318908437189B0
:1019400008430443AC81AC8A4FF6FF400440B089A1
:101950000443AC8201A8FFF7C2FEC648874202D109
:10196000DDF810A001E0DDF80CA0A88900F400402B
:1019700040B10AEBCA0000EB0A1031684900B0FB25
:10198000F1F807E00AEBCA0000EB0A1031688900A1
:10199000B0FBF1F86420B8FBF0F0040120096421E9
:1019A00001FB1089A88900F4004040B1322000EB0F
:1019B000C900B0FBF1F000F00700044308E032205A
:1019C00000EB09106421B0FBF1F000F00F000443BC
:1019D0002C8106B0BDE8F0874FF41651016000215C
:1019E0008180C18001810C2141810021818170476A
:1019F00010B502460020108A4FF2FF0318400B88F2
:101A00004C8823438C882343CC882343184310827B
:101A100010BD0021018041808180C180704721B1CB
:101A2000828942F40052828104E082894DF6FF737C
:101A30001A4082817047F0B5034600240026002535
:101A4000002040F66A17B94200D100BF1846C1F322
:101A5000421401F01F06012707FA06F5012C01D1F7
:101A60000C3004E0022C01D1103000E014301AB127
:101A700007682F43076002E00768AF430760F0BDC7
:101A80001AB1838A0B43838202E0838A8B43838269
:101A90007047028A4FF6F0731A400282028A0A43A4
:101AA0000282704782894FF2FF731A4082818289D5
:101AB0000A438281704721B1828942F00202828109
:101AC00004E082894FF6FD731A4082817047028AD2
:101AD0004FF6DF731A400282028A0A43028270477D
:101AE00021B1028A42F48042028204E0028A4BF66B
:101AF000FF731A4002827047C1F308028280704768
:101B000001468888C0F308007047818941F00101CF
:101B100081817047028BD2B20283028B42EA01229A
:101B200002837047028B02F47F420283028B0A43D6
:101B30000283704721B1828A42F02002828204E04F
:101B4000828A4FF6DF731A408282704721B1828AFF
:101B500042F01002828204E0828A4FF6EF731A404C
:101B60008282704721B1828A42F00802828204E0B8
:101B7000828A4FF6F7731A408282704721B18289B8
:101B800042F40042828103E08289C2F30E02828124
:101B9000704721B1828A42F40062828204E0828A24
:101BA0004FF2FF731A4082827047828A4FF6FB73AE
:101BB0001A408282828A0A438282704721B1828AD5
:101BC00042F00202828204E0828A4FF6FD731A40DC
:101BD0008282704702460020B1F5007F00D100BF2D
:101BE00013880B400BB1012000E00020704701F486
:101BF0000072B2F5007F00D100BFCA430280704777
:101C000070B50246002400230025002040F66A1625
:101C1000B14200D100BFC1F3421501F01F030126FC
:101C200006FA03F3012D02D19689334006E0022D16
:101C300002D1168A334001E0968A33400C12012605
:101C400006FA04F41688344013B10CB1012000E008
:101C5000002070BD10B50022002340F66A14A14296
:101C600000D100BF0A1201249440A3B2DC430480D7
:101C700010BD000000380140004400400048004012
:101C8000004C00400050004031490143314A11608E
:101C9000704770B5002100230F22C47804B32D4C87
:101CA000246804F4E064C4F5E064210AC1F104038B
:101CB000CA40447804FA03F18478144021430901AE
:101CC000254C0678A155047804F01F050124AC408A
:101CD00005786D11AD0005F1E025C5F8004109E07A
:101CE000047804F01F050124AC401C4D06787611E1
:101CF00045F8264070BD1A4A0A400243154B1B1F87
:101D00001A60704739B1134A121D12680243114B11
:101D10001B1D1A6006E00F4A121D126882430D4B0C
:101D20001B1D1A607047042808D14FF0E021096993
:101D300041F004014FF0E022116107E04FF0E02193
:101D4000096921F004014FF0E022116170470000A1
:101D50000000FA050CED00E000E400E080E100E0A6
:101D600080FFFF1F70477047704770477047754688
:101D700000F028F8AE4605006946534620F00700FB
:101D8000854618B020B5FFF763F8BDE820404FF056
:101D900000064FF000074FF000084FF0000B21F055
:101DA0000701AC46ACE8C009ACE8C009ACE8C00922
:101DB000ACE8C0098D4670470446AFF3008020466A
:101DC000FEF7FDF90048704744000020111213147B
:101DD0001511121314150000F81D00080000002052
:101DE000300000006C010008281E000830000020B0
:101DF00078060000880100080000000000A24A04E4
:101E000000000000000000000102030406070809AA
:101E100000000000000000000102030401020304AE
:081E2000060708090204060888
:0400000508000131BD
:00000001FF
